:100000000C9434000C9446000C9446000C94870029
:100010000C9446000C9446000C9446000C94460048
:100020000C9446000C9446000C9446000C94460038
:100030000C9446000C9446000C9446000C94460028
:100040000C94F4000C9446000C9446000C9446006A
:100050000C9446000C9446000C9446000C94460008
:100060000C9446000C94460011241FBECFEFD8E03C
:10007000DEBFCDBF21E0A0E0B1E001C01D92A03104
:10008000B207E1F70E9457000C94B7010C940000EE
:10009000E8E6F0E0808181608083EBE6F0E080813B
:1000A0008460808387B187B98FEF88B90895239AD8
:1000B00015B80E943F010E9448000E94EB0078940E
:1000C000C12CD12C7601C8E00E9419014B015C01C2
:1000D00080910001882351F060910101709102012B
:1000E00080E090E00E94650110920001D501C401FA
:1000F0008C199D09AE09BF0980349244AF40B10507
:1001000018F385B18C2785B975016401DDCF1F9285
:100110000F920FB60F9211242F933F934F935F933B
:100120006F937F938F939F93AF93BF93EF93FF93BF
:100130000E941901609307017093080180930901DF
:1001400090930A011A9B18C080910B01811132C053
:1001500081E080930B018091070190910801A091AB
:100160000901B0910A018093030190930401A093C7
:100170000501B09306011EC020910B012130D1F47E
:1001800010920B018091070190910801A091090143
:10019000B0910A0140910301509104016091050161
:1001A00070910601841B950B9093020180930101CD
:1001B00020930001FF91EF91BF91AF919F918F919B
:1001C0007F916F915F914F913F912F910F900FBE53
:1001D0000F901F90189585B5836085BDEEE6F0E021
:1001E00080818160808308951F920F920FB60F92D5
:1001F00011248F939F93AF93BF9380910C019091A3
:100200000D01A0910E01B0910F010196A11DB11D2C
:1002100080930C0190930D01A0930E01B0930F01F8
:10022000BF91AF919F918F910F900FBE0F901F9034
:1002300018958FB73FB7F89480910C0190910D01FC
:10024000A0910E01B0910F0126B5A89B05C02F3FCC
:1002500019F00196A11DB11D3FBFBA2FA92F982FEC
:100260008827820F911DA11DB11DBC01CD0143E066
:10027000660F771F881F991F4A95D1F7089510922E
:10028000C50088E08093C400E2ECF0E080818660E5
:10029000808388E98093C10008959091C00095FF04
:1002A000FCCF8093C6000895CF93DF93EC01899132
:1002B00018161CF40E944D01FACF8DE00E944D01EA
:1002C0008AE0DF91CF910C944D01CF93DF93CDB7AE
:1002D000DEB7A1970FB6F894DEBF0FBECDBFDC012D
:1002E000CB014AE0BE016F5F7F4F0E9482010E94F6
:1002F0005401A1960FB6F894DEBF0FBECDBFDF91BB
:10030000CF910895BB274A3031F4992322F4BDE2FE
:10031000909581959F4F0C948E01BB27FB0155272B
:10032000AA27880F991FAA1FA41710F0A41B839552
:100330005051B9F7A05DAA3308F0A95DA1930097C9
:1003400079F7B111B1931192CB010C94A701DC01A3
:10035000FC01672F71917723E1F7329704C07C91FC
:100360006D9370836291AE17BF07C8F30895F89438
:02037000FFCFBD
:00000001FF
