:100000000C9434000C9451000C9451000C941D017C
:100010000C9451000C9451000C9451000C9451001C
:100020000C9451000C9451000C9451000C9451000C
:100030000C9451000C9451000C9451000C945100FC
:100040000C9497010C9451000C9451000C945100A5
:100050000C9451000C9451000C9451000C945100DC
:100060000C9451000C94510011241FBECFEFD8E026
:10007000DEBFCDBF11E0A0E0B1E0EAEAF6E002C0E9
:1000800005900D92A230B107D9F721E0A2E0B1E0CE
:1000900001C01D92AE35B207E1F70E9497000C94A3
:1000A00053030C94000080E0089590910701809123
:1000B00006019923C1F08031B0F49091050191308F
:1000C00011F410920501E82FF0E0EE0FFF1FEB5E38
:1000D000FE4F20913C0130913D01318320838F5FA1
:1000E0008093060108958031B1F460E185E191E0EB
:1000F0000E945300853030F41092060181E0809315
:100100000501089580910301909104010196909357
:100110000401809303010895E8E6F0E080818160A6
:100120008083EBE6F0E08081866080830895579AB3
:1001300080E88BB90E9425020E94E2010E948E0194
:1001400083E00E94BF0280E00E94A80260E086E097
:100150000E94550260E087E00E94550280E30E9401
:10016000B30283E090E00E94660280E090E00E948B
:100170007C0280E090E00E9492020E948C007894C1
:10018000C0E0D0E0812C912C54010E94BC012B01D5
:100190003C010E94550080910501813069F4C091B5
:1001A0001501D0911601BE0180E090E00E94080286
:1001B00080E091E00E94F701CE01A0E0B0E09C0158
:1001C000AD012659344041095109A0E3B0E00E9435
:1001D000E20222EB32E040E050E00E94C3026901FB
:1001E0007A01211106C068E786E00E94550268E79F
:1001F00005C060E086E00E94550260E087E00E9452
:1002000055028C2D0E94B302C701B60177278827BB
:1002100099270E940802D301C20188199909AA09E5
:10022000BB098032914AA740B10508F4AECF8BB12B
:1002300080588BB953014201A8CF1F920F920FB67D
:100240000F9211242F933F934F935F936F937F935C
:100250008F939F93AF93BF93EF93FF930E94BC0143
:100260006093100170931101809312019093130118
:1002700020911401199B0EC021111DC021E0209373
:100280001401609337017093380180933901909382
:100290003A0111C0213079F41092140140913701D4
:1002A00050913801FB01E41BF50BF0933D01E09305
:1002B0003C012093070120913B011A9B0EC02111A4
:1002C0001CC021E020933B0160930C0170930D0151
:1002D00080930E0190930F0110C0213071F41092A1
:1002E0003B0140910C0150910D01641B750B709303
:1002F00036016093350120930201FF91EF91BF9188
:10030000AF919F918F917F916F915F914F913F91AD
:100310002F910F900FBE0F901F90189585B5836099
:1003200085BDEEE6F0E080818160808308951F92B4
:100330000F920FB60F9211248F939F93AF93BF9399
:100340008091080190910901A0910A01B0910B01DF
:100350000196A11DB11D8093080190930901A093FE
:100360000A01B0930B01BF91AF919F918F910F90B4
:100370000FBE0F901F9018958FB73FB7F8948091DC
:10038000080190910901A0910A01B0910B0126B5D5
:10039000A89B05C02F3F19F00196A11DB11D3FBFBD
:1003A000BA2FA92F982F8827820F911DA11DB11D4B
:1003B000BC01CD0143E0660F771F881F991F4A9546
:1003C000D1F708951092C50088E08093C400E2EC54
:1003D000F0E080818660808388E98093C100089581
:1003E0009091C00095FFFCCF8093C6000895CF93F5
:1003F000DF93EC01899118161CF40E94F001FACFEA
:100400008DE00E94F0018AE0DF91CF910C94F00121
:10041000CF93DF93CDB7DEB7A1970FB6F894DEBFC9
:100420000FBECDBFDC01CB014AE0BE016F5F7F4F45
:100430000E941E030E94F701A1960FB6F894DEBF3A
:100440000FBECDBFDF91CF91089581E08093B800BA
:10045000E9EBF0E080818083089594EA9093BC00FA
:100460009091BC0097FFFCCF8093BB0084E8809301
:10047000BC008091BC0087FFFCCF8091B9008091C7
:10048000B90080E008958093BB0084E88093BC00AD
:100490008091BC0087FFFCCF089584E98093BC0065
:1004A0008091BC0084FDFCCF0895CF93DF93D82FBB
:1004B000C62F88E80E942D028D2F0E9443028C2FA8
:1004C0000E944302DF91CF910C944D029C01295F61
:1004D0003F4F2F30310578F497FF03C067E0680F76
:1004E00007C0009721F090E1692F681B01C067E009
:1004F00083E00C94550208959C01295F3F4F2F30F3
:10050000310578F497FF03C067E0680F07C00097D4
:1005100021F090E1692F681B01C067E084E00C9432
:10052000550208959C01295F3F4F2F30310578F423
:1005300097FF03C067E0680F07C0009721F090E1C4
:10054000692F681B01C067E085E00C94550208958F
:10055000813120F4682F81E00C945502089568E3FE
:1005600082E00C945502CF93C82F811102C00E94E3
:10057000AF0260E36C1B82E0CF910C945502682FB0
:1005800080E00C945502052E97FB1EF400940E9407
:10059000DA0257FD07D00E94ED0207FC03D04EF4AB
:1005A0000C94DA0250954095309521953F4F4F4F6E
:1005B0005F4F089590958095709561957F4F8F4F0F
:1005C0009F4F08950E940F03A59F900DB49F900D1B
:1005D000A49F800D911D11240895A1E21A2EAA1B3B
:1005E000BB1BFD010DC0AA1FBB1FEE1FFF1FA217E3
:1005F000B307E407F50720F0A21BB30BE40BF50BE0
:10060000661F771F881F991F1A9469F76095709568
:10061000809590959B01AC01BD01CF010895A29FEB
:10062000B001B39FC001A39F700D811D1124911DC6
:10063000B29F700D811D1124911D0895BB274A3072
:1006400031F4992322F4BDE2909581959F4F0C944B
:100650002A03BB27FB015527AA27880F991FAA1F2A
:10066000A41710F0A41B83955051B9F7A05DAA33CD
:1006700008F0A95DA193009779F7B111B193119298
:10068000CB010C944303DC01FC01672F71917723AC
:10069000E1F7329704C07C916D9370836291AE173D
:0A06A000BF07C8F30895F894FFCFD8
:0206AA0000004E
:00000001FF
