:100000000C9434000C9449000C9449000C94490061
:100010000C9449000C9449000C9449000C9449003C
:100020000C9449000C9449000C9449000C9449002C
:100030000C9449000C9449000C9449000C9449001C
:100040000C9449000C9449000C9469000C944900EC
:100050000C9449000C9449000C9449000C944900FC
:100060000C9449000C94490011241FBECFEFD8E036
:10007000DEBFCDBF12E0A0E0B1E0ECEAF3E002C0E9
:1000800005900D92A63EB107D9F70E944B000C9443
:10009000D4010C940000239A15B80E947D000E94A0
:1000A0008C000E94CA000E945001C2E020E04AE297
:1000B00061E08C2F0E947701CA5FC638B9F72FEF35
:1000C00089E698E1215080409040E1F700C00000AF
:1000D000EACF1F920F920FB60F9211248F93EF93D6
:1000E000FF93E6ECF0E080818083FF91EF918F91A8
:1000F0000F900FBE0F901F9018951092C50088E0CA
:100100008093C400E2ECF0E080818660808388E91F
:100110008093C1007894089581E08093B800E9EB62
:10012000F0E080818083089594EA9093BC009091E0
:10013000BC0097FFFCCF8093BB0084E88093BC0099
:100140008091BC0087FFFCCF8091B9008091B900FD
:1001500080E008958093BB0084E88093BC00809188
:10016000BC0087FFFCCF089584E98093BC00809198
:10017000BC0084FDFCCF0895CF93C82F88E70E9470
:10018000940080E80E94AA008C2F0E94AA00CF91C0
:100190000C94B4008EEA90E00E94BC0085ED90E0E3
:1001A0000E94BC0080E890E00E94BC0088EA90E0D9
:1001B0000E94BC008FE390E00E94BC0083ED90E0C1
:1001C0000E94BC0080E090E00E94BC0080E490E0CF
:1001D0000E94BC008DE890E00E94BC0080E190E0AD
:1001E0000E94BC0080E290E00E94BC0080E090E0B1
:1001F0000E94BC0081EA90E00E94BC0088EC90E084
:100200000E94BC008AED90E00E94BC0082E190E078
:100210000E94BC0081E890E00E94BC008FE990E061
:100220000E94BC0089ED90E00E94BC0082E290E058
:100230000E94BC008BED90E00E94BC0080E490E046
:100240000E94BC0084EA90E00E94BC0086EA90E034
:100250000E94BC008FEA90E00E94BC0080E090E029
:100260000E94BC0080E190E00E94BC0080E490E02D
:100270000E94BC0088E70E94940080EC0E94AA00C3
:100280000C94B400CF93C82F88E70E94940080E4B8
:100290000E94AA008C2F0E94AA00CF910C94B40057
:1002A0000F931F93CF9380E00E94BC0080E10E94D7
:1002B000BC0080EE0E94BC00C0EB8C2F0E94BC00F2
:1002C00004E810E080E00E94420101501109D1F7DA
:1002D00080E00E94BC0080E10E94BC00CF5FC83B70
:1002E00061F78EEECF911F910F910C94BC00FF929D
:1002F0000F931F93CF93DF93823008F44FC0693080
:1003000008F04CC0413A08F049C0F22E142FC62F15
:10031000D82F8D3760F080EB860F0E94BC0082E002
:100320000E94BC0080E10E94BC0081E001C080E02E
:10033000412F50E04052510995E0949F8001959FD4
:10034000100D1124811110C08D2F8F700E94BC00E0
:100350008D2F82958F70805F0E94BC008FEF8C0F75
:100360008F7080550E94BC00E801C050DF4F80EEC6
:100370000E94BC008E010B5F1F4F8881F110809599
:100380000E9442012196C017D107B9F78EEEDF9186
:10039000CF911F910F91FF900C94BC00DF91CF91F2
:0C03A0001F910F91FF900895F894FFCF7B
:1003AC00000000000000005F0000000700070014C0
:1003BC007F147F14242A7F2A12231308646236497F
:1003CC005522500005030000001C22410000412270
:1003DC001C00082A1C2A0808083E08080050300097
:1003EC0000080808080800606000002010080402DB
:1003FC003E5149453E00427F4000426151494621F1
:10040C0041454B311814127F1027454545393C4A5C
:10041C0049493001710905033649494936064949AC
:10042C00291E003636000000563600000008142243
:10043C004114141414144122140800020151090629
:10044C00324979413E7E1111117E7F494949363E30
:10045C00414141227F4141221C7F494949417F0949
:10046C000901013E414151327F0808087F00417F5C
:10047C0041002040413F017F081422417F40404011
:10048C00407F0204027F7F0408107F3E4141413EC1
:10049C007F090909063E4151215E7F09192946460B
:1004AC004949493101017F01013F4040403F1F2034
:1004BC0040201F7F2018207F6314081463030478E6
:1004CC000403615149454300007F41410204081077
:1004DC002041417F000004020102044040404040A2
:1004EC00000102040020545454787F4844443838A6
:1004FC0044444420384444487F3854545418087EAB
:10050C00090102081454543C7F0804047800447D0B
:10051C0040002040443D00007F10284400417F40B3
:10052C00007C041804787C0804047838444444386B
:10053C007C14141408081414187C7C08040408484F
:10054C0054545420043F4440203C4040207C1C2008
:10055C0040201C3C4030403C44281028440C505057
:10056C00503C4464544C44000836410000007F0069
:10057C0000004136080008082A1C08081C2A080834
:06058C00007E7E7E0000EF
:00000001FF
