:100000000C9434000C9449000C9449000C94490061
:100010000C9449000C9449000C9449000C9449003C
:100020000C9449000C9449000C9449000C9449002C
:100030000C9449000C9449000C9449000C9449001C
:100040000C9449000C9449000C944B000C9449000A
:100050000C9449000C9449000C9449000C944900FC
:100060000C9449000C94490011241FBECFEFD8E036
:10007000DEBFCDBF11E0A0E0B1E0EAE4F1E002C0F4
:1000800005900D92AE30B107D9F70E9481000C9413
:10009000A3000C9400001F920F920FB60F92112430
:1000A0008F93EF93FF93E6ECF0E080818083FF91E4
:1000B000EF918F910F900FBE0F901F901895109297
:1000C000C50088E08093C400E2ECF0E080818660A7
:1000D000808388E98093C100789408959091C0004E
:1000E00095FFFCCF8093C6000895CF93DF93EC017A
:1000F000899118161CF40E946E00FACFDF91CF91FF
:100100000895CF93DF93CDB7DEB72E970FB6F8944F
:10011000DEBF0FBECDBF8EE0E0E0F1E0DE01119664
:1001200001900D928A95E1F7239A15B80E945F001D
:10013000CE0101960E9475008FE19EE40197F1F7D0
:0A01400000C00000F5CFF894FFCFD7
:0E014A006465727020302064736667202000A8
:00000001FF
