:100000000C9434000C9451000C9451000C94510049
:100010000C9451000C9451000C9451000C9451001C
:100020000C9451000C9451000C9451000C9451020A
:100030000C9451000C9451000C942C020C9451001F
:100040000C9451000C9451000C9487000C945100B6
:100050000C9451000C9451000C9451000C945100DC
:100060000C9451000C94510011241FBECFEFD8E026
:10007000DEBFCDBF12E0A0E0B1E0EAE5F5E002C0EE
:1000800005900D92AC3EB107D9F722E0ACEEB2E09C
:1000900001C01D92A63FB207E1F70E9453000C94E5
:1000A000AB020C940000239A88E085B90E941202EA
:1000B0000E94B4000E943B0120E041E860910001F1
:1000C000809101010E946201C12CD12C7601C8E00F
:1000D000789461E776E180E090E00E94DA000E9487
:1000E0002002092E000CAA0BBB0BAC01BD014C1960
:1000F0005D096E097F09443F51406105710528F093
:1001000025B12C2725B96C017D01F894E1CF1F9210
:100110000F920FB60F9211242F933F934F935F933B
:100120006F937F938F939F93AF93BF93EF93FF93BF
:1001300081E08093EC028091C6008093F50280916B
:10014000F5020E94C200FF91EF91BF91AF919F9184
:100150008F917F916F915F914F913F912F910F9070
:100160000FBE0F901F9018951092C50088E08093E5
:10017000C400E2ECF0E080818660808388E98093AF
:10018000C10008959091C00095FFFCCF8093C600F8
:100190000895CF93DF93EC01899118161CF40E9407
:1001A000C200FACF8DE00E94C2008AE0DF91CF91B9
:1001B0000C94C200CF93DF93CDB7DEB7A1970FB6F3
:1001C000F894DEBF0FBECDBFDC01CB014AE0BE011B
:1001D0006F5F7F4F0E9476020E94C900A1960FB602
:1001E000F894DEBF0FBECDBFDF91CF91089594EAA2
:1001F0009093BC009091BC0097FFFCCF8093BB0014
:1002000084E88093BC008091BC0087FFFCCF809184
:10021000B9008091B90080E008958093BB0084E824
:100220008093BC008091BC0087FFFCCF089584E9D7
:100230008093BC008091BC0084FDFCCF0895CF93D7
:10024000C82F88E70E94F70080E80E940D018C2FDC
:100250000E940D01CF910C941701CF93C82F88E70E
:100260000E94F70080E40E940D018C2F0E940D0176
:10027000CF910C9417010F931F93CF9380E00E94AE
:100280001F0180E10E941F0180EE0E941F01C0EB50
:100290008C2F0E941F0104E810E080E00E942D01D5
:1002A00001501109D1F780E00E941F0180E10E94F6
:1002B0001F01CF5FC83B61F78EEECF911F910F9169
:1002C0000C941F017F928F929F92AF92BF92CF9218
:1002D000DF92EF92FF920F931F93CF93DF939EEFE6
:1002E000980F9B3708F090C0F62EF694F694F6948B
:1002F00037E03F1508F488C0062F10E0085F1F4F55
:1003000093E0159507959A95E1F7F801EF19F10932
:10031000319709F079C0D22ED42FC82FC62E88E08D
:10032000F89EC01811249C2F9F70792E892F0E944F
:100330001F01C295CF70C05F8C2F0E941F0180EB00
:100340008F0D0E941F014D2F50E04052510925E0B2
:10035000249FC001259F900D1124FC01EE5FFE4FEC
:100360007F0180EE0E941F014701F5E08F0E911C76
:100370005701F5018081DD2011F0809505C00C2C1E
:1003800001C0880F0A94EAF70E942D01FFEFAF1A0F
:10039000BF0AA814B90469F78EEE0E941F01872DC9
:1003A0000E941F018C2F0E941F0180EB800F0E9472
:1003B0001F0180EE0E941F01F7018081DD2011F0F6
:1003C00080950AC0082E000C990B0C2C02C0880FD7
:1003D000991F0A94E2F7892F0E942D01FFEFEF1A6F
:1003E000FF0AE814F90441F78EEEDF91CF911F91D7
:1003F0000F91FF90EF90DF90CF90BF90AF909F90C4
:100400008F907F900C941F01DF91CF911F910F91DE
:10041000FF90EF90DF90CF90BF90AF909F908F9024
:100420007F90089584B5826084BD85B5836085BD65
:10043000EEE6F0E08081826080838DE787BD0895DD
:100440002FB7F8946091ED027091EE028091EF0267
:100450009091F0022FBF08951F920F920FB60F9246
:1004600011248F939F93AF93BF938091ED0290914E
:10047000EE02A091EF02B091F0020196A11DB11D14
:100480008093ED029093EE02A093EF02B093F002FE
:10049000BF91AF919F918F910F900FBE0F901F90C2
:1004A00018951F920F920FB60F9211248F939F935E
:1004B000AF93BF938091F1029091F202A091F30269
:1004C000B091F4020196A11DB11D8093F1029093A9
:1004D000F202A093F302B093F402BF91AF919F9107
:1004E0008F910F900FBE0F901F901895BB274A3029
:1004F00031F4992322F4BDE2909581959F4F0C949D
:100500008202BB27FB015527AA27880F991FAA1F24
:10051000A41710F0A41B83955051B9F7A05DAA331E
:1005200008F0A95DA193009779F7B111B1931192E9
:10053000CB010C949B02DC01FC01672F71917723A6
:10054000E1F7329704C07C916D9370836291AE178E
:0A055000BF07C8F30895F894FFCF29
:10055A000446000000000000005F000000070007DA
:10056A0000147F147F14242A7F2A1223130864623A
:10057A0036495522500005030000001C22410000A4
:10058A0041221C00082A1C2A0808083E08080050B4
:10059A003000000808080808006060000020100801
:1005AA0004023E5149453E00427F400042615149A2
:1005BA00462141454B311814127F102745454539CC
:1005CA003C4A494930017109050336494949360609
:1005DA004949291E00363600000056360000000838
:1005EA001422411414141414412214080002015153
:1005FA000906324979413E7E1111117E7F494949E6
:10060A00363E414141227F4141221C7F49494941AD
:10061A007F090901013E414151327F0808087F00E4
:10062A00417F41002040413F017F081422417F4021
:10063A004040407F0204027F7F0408107F3E414110
:10064A00413E7F090909063E4151215E7F09192968
:10065A0046464949493101017F01013F4040403F37
:10066A001F2040201F7F2018207F63140814630373
:10067A0004780403615149454300007F4141020463
:10068A0008102041417F000004020102044040405A
:10069A004040000102040020545454787F484444E6
:1006AA00383844444420384444487F385454541811
:1006BA00087E090102081454543C7F080404780097
:1006CA00447D40002040443D00007F102844004102
:1006DA007F40007C041804787C0804047838444479
:1006EA0044387C14141408081414187C7C08040474
:1006FA00084854545420043F4440203C4040207C45
:10070A001C2040201C3C4030403C44281028440C0B
:10071A005050503C4464544C440008364100000098
:10072A007F0000004136080008082A1C08081C2A15
:0C073A000808007E7E7E00FFFFFFFFFF2E
:00000001FF
